:020000040000FA
:1000000000600020290400004104000043040000B7
:1000100000000000000000000000000000000000E0
:100020000000000000000000000000004504000087
:10003000000000000000000047040000112B000039
:100040004B0400004F04000053040000570400005C
:100050007B0400007B0400007B0400007B040000A4
:100060005B0400005F0400006304000067040000FC
:100070006B0400006F040000730400007B040000A8
:100080007B0400007B0400007B0400007B04000074
:100090007B0400007B0400007B0400007704000068
:1000A0007B0400007B0400007B0400007B04000054
:1000B0007B0400007B0400007B040000ED220000B4
:1000C0000000000000000000000000000000000030
:1000D0000000000000000000000000000000000020
:1000E0000000000000000000000000000000000010
:1000F0000000000000000000000000000000000000
:10040000FFFFFFFFFFFFFFFFFFFFFFFFFEFFFFFFFD
:100410000448854600F0D2FB0048004779360000CA
:10042000C046C0460060002072B6154815490160FC
:100430000A6882F308881448804762B61348004768
:10044000FEE7FEE7FEE7FEE7FEE71148004711483A
:10045000004711480047114800471148004711481C
:10046000004711480047114800471148004711480C
:100470000047114800471148004711480047000055
:1004800008ED00E000000000212B00001104000036
:100490007B0400007B0400007B0400007B04000060
:1004A00079160000911600007B0400007B04000018
:1004B000392B0000552B0000712B00007B0400003D
:1004C0007B04000030B50B460146002020220124A9
:1004D00009E00D46D5409D4205D31D469540491B78
:1004E0002546954040191546521E002DF1DC30BDC1
:1004F000F0B51FB40646002082B0054640240191A5
:1005000000901BE0019922460F46304600F04CFA5D
:10051000049A059B801A994110D310461946224629
:1005200000F032FA361A8F4101972246012000214D
:10053000009F00F029FA38184D4100902046641EB3
:100540000028DFDC019B00982946324607B0F0BD49
:10055000F8B500242546002904DA0E4601240021BE
:100560004042B141002B04DA1E46002352420125CD
:10057000B341FFF7BDFF8C4617461E46AC4203D081
:10058000002540428D41AC46002C02D00026574247
:100590009E4161463A46334601B0F0BDF0B51FB406
:1005A00086B000200090019002900698069980B2D3
:1005B00004900798090C02040014114307900027C7
:1005C000089D099806913E463C4603900398A9B2BF
:1005D0000204000C039004982D0C1543484300219D
:1005E000224600F0D1F9C719714110340E46402C53
:1005F000ECDB3846029A00F0C7F9009A019B80189C
:100600000090594102980191103002904028CCDBB3
:1006100000980BB0F0BDD2B201E00270401C491E40
:10062000FBD270470022F6E710B513460A4604468F
:100630001946FFF7F0FF204610BD421C0178401C10
:100640000029FBD1801A7047024670B54A40D30F8B
:10065000DB0740002DD04A002AD0010E140E000204
:1006600012020919400A520A8418E501044654434B
:10067000000A120A2E045043A4194219200CC54343
:10068000AA18120C0125AD03521C521912047F390D
:10069000240400D0521C104301D44000491EC2B2B1
:1006A0000C06C0092018401C4008802A02D003E034
:1006B000002070BD40084000002900DA00201843E7
:1006C00070BD70B502464A40D50F40004A00ED07A4
:1006D00040085208002814D0002A12D0C40DD30DAF
:1006E00041020120C0055202490A520AE41A0918BF
:1006F00012187D34914201D3641C00E04900002CA3
:1007000001DA002070BD0023914201D3891A03430E
:10071000400849000028F7D100290AD0914202D1AF
:100720000121C90705E0914201D2012101E0012127
:10073000C943E005C018401900F047F970BD00003A
:10074000F0B51FB488B00B99099800244840099966
:10075000C00F490049080991C0070B990090490052
:1007600049080B9109990898A64608431CD00B9993
:100770000A98084318D0099801244000420D480007
:10078000410D099824050003000B204309900B98A4
:100790000003000B20430B9050181C494018002206
:1007A00001901446104605E0002001460DB0F0BD52
:1007B000032801DA034600E003239C46C11A0AAE6F
:1007C0000AE05F0008ADED5B4F00F75B7D4300275B
:1007D000AA187C41491C5B1E6145F2DD410004AB57
:1007E0005A522104120C0A43240C401C0828DFDB57
:1007F000019802900099704601910090059B049A1F
:100800000799069800F088F9D0E700000DFCFFFF7B
:10081000F0B50C465C4085B0E40FE40703944C004F
:10082000002664085900944649080246029622436D
:1008300021D062460A431ED06200570D4A000E03C3
:100840002303550D012402462C492405781B1B0B5C
:10085000360B401823432643614600901C46501A2D
:10086000B44103D30098401C009002E09218009815
:100870005B41002803DA0020014605B0F0BD0020EE
:10088000012109050746864611E064461D46141BF2
:10089000B54106D36546521BB341744607430C432A
:1008A000A646CD0740084908284392185B410546F3
:1008B0000D43EAD11046184313D060461946504004
:1008C0007140084306D06046101AB34106D2012297
:1008D000002306E000220123DB0702E00122D243CD
:1008E0005310009874460105381C6141029C039D19
:1008F0000019694100F003F9BFE70000FD030000A3
:10090000C217C10F504010B54018CA0796230021E6
:1009100000F063F810BD000070B5CD0F4A00090368
:100920000123090B1B0519430B4BED070024520D46
:100930009A4201DA002070BD074B34339A4203DC3F
:100940009A1A00F031F802E00449511888402C430B
:10095000F1D0404270BD0000FF030000CDFBFFFF5F
:10096000C20FD207400040080BD0C10D0723DB01A6
:10097000C91840020905400A1143C2084007114343
:10098000704700200146704710B5202A04DB01465D
:10099000203A9140002010BD914020239C1A03462C
:1009A000E3401943904010BD10B5202A04DB0846EF
:1009B000203AD040002110BD0B46D340D040202427
:1009C000A21A91400843194610BD002904DA401CC0
:1009D000490001D140084000704770B40024050C64
:1009E00005D11024000402D1002921D01124050EC4
:1009F00001D100020834050F01D10001241D850F2B
:100A000001D18000A41C002801DB4000641C0029E7
:100A100008D020252E1B0D46F540A14000D0012115
:100A20002943084301061B1B000ADB1D02D50020D9
:100A300070BC7047DB05181880180029F8DA401CD4
:100A40004900F5D170BC400840007047F8B5024637
:100A50004A40D40F42004B0052085B089A4202D22F
:100A60000246084611464A0023D0C30D4A00DDB2B3
:100A7000120EAD1A202D35DA49020126490AF60573
:100A80008A19002C00D0524220214F1B1146B94038
:100A90002A411018C20D9A4221D0002C17D0012DE6
:100AA00008DCDA05801AD20F8019D207DBB2FFF713
:100AB00094FFF8BDDA05801A012340001B06C01818
:100AC00080185A428018CA0F1043490007E04908AD
:100AD000C2071143DA05801A801940088018FFF711
:100AE00074FFF8BD61000122511A001BF7E70122D3
:100AF000D2075140AAE70122D2075040A6E710B51D
:100B0000002B08DA0024401C614192185B411A4313
:100B100001D14008400010BDF0B51FB482B00546B9
:100B20000C0003D0084602F091F902E002F08EF9C1
:100B300020300246009021462846FFF725FF049BFF
:100B4000059A04460F4618431143084314D018462B
:100B500010431BD0009840210A1A18460599FFF748
:100B600023FF05460E46009A05990498FFF70CFFEF
:100B7000084305D0012004E02046394607B0F0BD07
:100B80000020C11705430E432C43374300990E98AC
:100B90006305401A7905E40A00220C43FD0A0A3075
:100BA00002D500200146E9E70105101969410C9CB6
:100BB0000D9D00196941FFF7A2FFDFE7064C0125F3
:100BC000064E05E0E36807CC2B430C3C98471034F5
:100BD000B442F7D3FFF720FC703C0000903C0000CB
:100BE000420005D04200120E52428A4201DB002030
:100BF0007047C9050818704710B500BF1148124961
:100C0000486000BF114800F00BFB1049086810490C
:100C1000086000BF0F49087900F0A8F80D4AD21DFE
:100C20000021084600F074F80A4BDA789978587871
:100C300000F036FB084800F0D1FB0848084908607E
:100C400010BD000000000310408004408038000008
:100C500018E0FF1F6C38000078380000006CDC02E0
:100C600044E0FF1F1CB50A4800F08EF809480068F0
:100C7000019001AA1821084801F072FB0548001DE7
:100C8000006800906A461921034801F069FB1CBD09
:100C90000D003810A438000000D0044010B5012029
:100CA0000B494968032292069143820603239B065F
:100CB0001A401143064A516000BF00F095FA0446FD
:100CC00023460322E1214902024800F05DFC10BDE9
:100CD0000080044000A0064010B50A4800F054F817
:100CE00002220121084801F053FB02221146064866
:100CF00001F04EFB05480069C008C00003490861C7
:100D000010BD00000900381000900440008004402D
:100D100070B506460D461446002C00D004E00E4A7D
:100D20000E490FA002F0C8F8304600F0B5FA21468F
:100D3000284600F00BFB0C480078C02188430A4984
:100D4000087000BF084880790C21084080080328FB
:100D5000F8D1002070BD0000190600001C3A000008
:100D6000636F6E66696700000040064005490978B8
:100D700038229143C20038231A401143014A1170AE
:100D80007047000000400640020C044BD1180A686E
:100D9000012383401A430A6070470000007004403A
:100DA000020C044BD1180A68012383401A430A60DD
:100DB000704700000070044070B50446002C00D05D
:100DC00005E0C1229200124912A002F075F8002538
:100DD0006078C006C00E054310480571407940098F
:100DE0004001A178C906C90E08430C49487108465C
:100DF000007921784022114308430849087100BF57
:100E000006488079402108400028F9D070BD0000D4
:100E10001C3A0000636F6E66696700000040064080
:100E200010B516480068032189040840800C00288A
:100E300004D002280CD003281BD117E000F04AF997
:100E40000121C903884200D100E00020044612E0DD
:100E50000B480068002800D005E0FF2276320949DF
:100E600009A002F029F80648046804E07D24E400A3
:100E700001E0002400BF00BF204610BD0070044008
:100E80001CE0FF1F1C3A0000675F7874616C33320E
:100E9000467265710000000010B500F073F804465A
:100EA000002C06D000F04CF9C008A04201D3204627
:100EB00010BD0020FCE7000070B500F0F3F8054617
:100EC000002D01D1284670BD174800783821084010
:100ED000C4082846E04005461348407830210840C1
:100EE0000609002E1DD0230001F0C7FF08050607E4
:100EF00008090A0C121800BF00BF00BF00BF00BFE6
:100F00006D090DE014212846FFF7DCFA054607E0DD
:100F10000C212846FFF7D6FA054601E0002500BF60
:100F200000BF2846CFE700000040064070B51348D8
:100F3000407802210840002805D1104880792021FE
:100F40000840002801D0002070BD00F01BF80446C6
:100F5000002C01D12046F7E70848C07860210840FE
:100F600045090648C07880210840C609A800044900
:100F700040187100405A6043E6E700000040064018
:100F8000EC38000010B506488079102108400009AF
:100F9000002802D1FFF790FF10BD02480068FBE770
:100FA0000040064010E0FF1F70B505462B0001F021
:100FB00064FF0D080915162D314835393D414C4562
:100FC0004C0000BF00F0BCF8064622484068000F05
:100FD000411C3046FFF776FA044638E000BF00F0C7
:100FE000AFF806461B484068000F411C3046FFF72B
:100FF00069FA044617484068072212041040000CA2
:10100000411C2046FFF75EFA044620E000F0ECF8B1
:1010100004461CE0FFF704FF044618E0FFF73CFF1E
:10102000044614E000F018F8044610E0FFF77EFFD5
:1010300004460CE000F0A4F8044608E07D24E40037
:1010400005E000F047F8044601E0002400BF00BFBF
:10105000204670BD4080044010B50548007802214C
:101060000840002800D110BD00F004F8FBE70000A4
:101070000040064008488079C007C00F002802D110
:101080000648006870470448007A0E21084041086D
:1010900003480068C840F5E70040064010E0FF1F25
:1010A00014E0FF1F10B506480068002800D004E0D7
:1010B000EE22044904A001F0FFFE0148006810BDC3
:1010C00018E0FF1F1C3A0000675F7874616C3046BF
:1010D0007265710010B50B48007880210840002827
:1010E0000DD009480068002800D005E0FF226232D8
:1010F000064907A001F0E0FE0348006810BD00208B
:10110000FCE700000050064018E0FF1F1C3A0000FA
:10111000675F7874616C3046726571000146064AFB
:10112000914201D8002005E0044A914201D80120F3
:1011300000E00220704700009798000000127A003B
:1011400010B50E4989790C2211408C08002C08D06A
:10115000012C09D0022C0AD0032C0BD100F010F87E
:101160000AE0FFF7E3FE07E0FFF784FF04E0FFF784
:1011700099FF01E0002000BF00BF10BD0040064005
:1011800010B51148807940210840002800D110BDD9
:1011900000F026F80446002C00D004E00B4A0C496D
:1011A0000CA001F089FE08480079C006C00E411C61
:1011B0002046FFF787F9044603484079C006C00E71
:1011C000183044432046E2E7004006406102000038
:1011D0001C3A00006D6367706C6C30636C6B0000D0
:1011E00010B5FFF75FFF10BD10B50C484068012136
:1011F00009040840000C002802D0012809D103E0AE
:10120000FFF794FE044606E0FFF7BAFF04466408C1
:1012100001E0002400BF00BF204610BD0080044054
:1012200070B504462068FFF779FF05461848227913
:101230000178090909010B4613431946017000BFE3
:1012400000BF0178A0230A469A431146A2791143B0
:10125000017000BF0F4840783C21884329013022AB
:1012600011400843617908430A49487060790028B1
:101270000CD00748007880210840002806D000BF25
:1012800004488079022108400028F9D070BD000090
:101290000050064000400640014600207047000014
:1012A000F8B50346284880790C2630408408264843
:1012B0008079C507ED0F2448007A0E26304040089B
:1012C00000900098824220D0012D14D1012C05D02D
:1012D0001D4800780226304000280CD01A4840787B
:1012E00040084000184E707000BF17488079C00752
:1012F000C00F0028F9D11448007A2F26B0435600B9
:101300000E273E403043104E30720F484078400860
:101310004000CE07F60F30430B4E70703046007819
:101320008008800018433070012C03D00220184040
:10133000002806D000BF04488079C007C00F88424B
:10134000F9D10020F8BD00000040064070B5054608
:101350000C46002C00D005E0572212011B491CA0AE
:1013600001F0AAFD1C484078022188431A494870C0
:1013700008460078C421884380301749087000BFB0
:10138000154880791C2108400828F9D11248407975
:10139000402188431049487100BF0F4880792021BF
:1013A00008400028F9D12046FFF706FD0A48407999
:1013B000402108430849487100BF0748807920212F
:1013C00008400028F9D0002070BD00001C3A000041
:1013D000636F6E66696700000040064010B5114AF1
:1013E0004168516001780F4A403A526801231B045A
:1013F0009A430B040124240423401A43094B403B25
:101400005A6000BF4178084A126803239B049A433C
:101410008B040324A40423401A43034B1A6000BF27
:1014200010BD00004080044000700440FFB595B03E
:101430001C4600200190159F38707F1C17980028CB
:101440004FD0169903C90B910A9000230A9858406F
:101450000B995940084307D1302038700198401C3F
:101460000190019819B0F0BD33E02246E3170B99C3
:101470000A98FFF76DF809910890E2170999089802
:101480000D940C920E910F9022460C9BFFF786F85C
:101490000A9B0B9A181A8A41079206900023079913
:1014A0000698C01A994106DA069DE943491C302086
:1014B0000818069003E03021069840180690099914
:1014C00008980B910A90069838707F1C0198401C70
:1014D000019000230A9858400B9959400843C4D101
:1014E00050E0169903C905910490002304985840D0
:1014F00005995940084306D1302038700198401CA6
:1015000001900198AEE736E02246E317059904986A
:10151000FEF7EEFF03910290E217039902981194EF
:101520001092129113902246109BFFF737F8049BFC
:10153000059A1D1A8A4116460A2100203246691A68
:10154000824102D230202D180CE031460A220020C0
:10155000AA1A814110461E99002901D0412100E0BC
:101560006121451803990298059104903D707F1CF4
:101570000198401C01900023049959400598584057
:101580000143C1D101986DE7F8B506460D461446F2
:101590001F46002C00D004E06922054905A001F097
:1015A0008BFC3B462A462146304600F08FFCF8BDB6
:1015B000683B000064657669636520213D204445F1
:1015C0004255475F434F4E534F4C455F4445564944
:1015D00043455F545950455F4E4F4E450000000053
:1015E0000FB430B5A1B00024002580216846FFF774
:1015F00019F825A820900A4B6A462099249800F0F3
:10160000AFFF04462146684600F084FC05460020F2
:101610002090284621B030BC08BC04B01847000018
:1016200025160000FFB581B005460C46164600277A
:1016300000BF0FE02068401C802805D328462168A1
:1016400000F068FC0020206020682E542068401CB8
:1016500020607F1C04988742ECDB05B0F0BD0000E1
:10166000044A116800BF034A1268521A8242FAD330
:101670007047000008E0FF1F10B5034801680348E9
:1016800000F02EFB10BD000020E0FF1F00600640B0
:1016900010B503484168034800F022FB10BD00006C
:1016A00020E0FF1F007006400246002010230B4080
:1016B000002B03D01023D370044805E0CB07DB0FC9
:1016C000002B01D00148401E704700004F0400006D
:1016D00070B50546002406E0A00009490858A84254
:1016E00000D102E0641C022CF6D300BF022C00D211
:1016F00004E0B822034904A001F0DEFB204670BDDF
:101700000C390000703A0000696E7374616E636595
:10171000203C2041525241595F53495A4528735F3A
:10172000693263426173657329000000012212036C
:101730000A40002A04D082790B041B0E1A438271DE
:10174000012292030A40002A04D082790B041B0E66
:101750001A438271C170704710B50446002C00D046
:1017600004E0064A064907A001F0A6FB09486060AC
:101770000020607020720120207010BD4202000025
:10178000703A00006D6173746572436F6E666967CD
:1017900000000000A08601000146C8788A79402335
:1017A0001A40002A01D01A0210438A7910231A40E5
:1017B000002A01D01A02104370470000F8B5044611
:1017C0000D461746002D02D0002F00D005E0FF2265
:1017D000FA321D491DA001F06FFB2046FFF778FF8C
:1017E0008100214840580090FFF7DAFA002020706D
:1017F0006070A070FF20E070002060715020A07128
:101800000020E071A07880218843A070174920460D
:10181000FFF78CFF3A462046696800F0A9F8A679E0
:1018200080213046884306466878C0010840064358
:1018300036093601287A0007000F0643A67128787A
:10184000C0010840A070F8BD703A00006D6173746B
:101850006572436F6E666967202626207372634344
:101860006C6F636B5F487A0098390000125000007B
:10187000FCB504460E4615461F4600200190002187
:10188000009168460078401CC1B2009100BFE0782A
:10189000802108400028FAD00220E070A0781821AA
:1018A0008843A070012D03D1A07808210843A070BF
:1018B000207900901FE000BFE07802210840002856
:1018C000FAD00220E070002D0CD10420384000280E
:1018D00004D1204600F0B4F8019003E0A078102174
:1018E0000843A070012D03D1A07808210843A070FF
:1018F00020793070761C28466D1E0028DBD10198B7
:10190000FCBD0000FEB504460E46174600200290BE
:101910002046FFF741FF019006200090202101980A
:101920000840002806D0A0780840002802D10F48BF
:10193000029019E06578C021284688436070A0783D
:1019400014210843A070657000E000BF0098411E9C
:10195000C9B200910028F8D17000012F01D10121F6
:1019600000E00021084320710298FEBD4C040000F5
:10197000F7B586B00D460020C043039000200290CA
:101980000190002627E00120B040059000271DE0CF
:101990007800194A105A059A504301460898FEF7F4
:1019A00091FD0446A54201D9281B00E0601B04906C
:1019B00003990498884207D20296019704980390ED
:1019C0000498002800D103E0781CC7B2402FDFD371
:1019D00000BF701CC6B2022E02D803980028D2D1D4
:1019E00002988001C021084001998906890E0843A8
:1019F0000699487009B0F0BD14390000F8B50446E6
:101A00000D461646002000902046FFF7C5FE07460B
:101A100020203840002802D0084800900BE0A07831
:101A200030210843A0706800012E01D1012100E09F
:101A30000021084320710098F8BD00004C0400000C
:101A4000014600208A7838239A438A7000BFCA78FA
:101A500020231A40002AFAD170470000F8B5054645
:101A60000C46002C00D004E05D4A5E495EA001F007
:101A700023FA677900265E492846FFF757FE00BF24
:101A8000E878802108400028FAD0207B002803DD78
:101A90006079012800D100272078C007C00F0028F6
:101AA00003D0012F13D10420F8BD02212068084083
:101AB000002806D021793A462846FFF723FF06463C
:101AC00005E021793A462846FFF798FF0646207838
:101AD000C007C00F00281AD1002E01D03046E3E71E
:101AE00000BFE878022108400028FAD0E9782846AB
:101AF000FFF7DAFD0646002E09D039484F308642FE
:101B000003D1C61C2846FFF79BFF3046CCE7207B5D
:101B1000002849D000BF0220E870207B401E2073BF
:101B2000217BC900A068C840287100BFE878022165
:101B300008400028FAD0E9782846FFF7B5FD0646A8
:101B4000002E08D026484F30864202D12846FFF7A3
:101B500077FF3046A8E7207B0028DCDC607901288D
:101B600022D10220E870217901222846FFF7CAFE1F
:101B70000646002E01D0304696E700BFE8780221E5
:101B800008400028FAD0E9782846FFF78DFD064680
:101B9000002E09D012484F30864203D1C61C284679
:101BA000FFF74EFF30467FE76079002809D1606972
:101BB000002806D0236862692169284600F01AF8D7
:101BC00006466079012809D16069002806D023689B
:101BD000626921692846FFF74BFE0646304663E7F7
:101BE000FF030000703A0000786665720000000094
:101BF00012500000FFB581B004460E46174600257E
:101C00000020009000BFE078802108400028FAD032
:101C10000220E070A07810210843A07022E0307804
:101C20002071761C00BFE078022108400028FAD01D
:101C3000E07800900220E070102100980840002811
:101C400002D01020E070144D0098C007C00F00288B
:101C500005D0002F03D00120E0700F4D6D1E002D28
:101C600000D003E038467F1E0028D8D100BF002DE9
:101C700004D1042104980840002803D00648401EDF
:101C8000854205D10220E0702046FFF7D9FE0546C7
:101C9000284605B0F0BD00004F040000FFB587B036
:101CA0000C4615461E46109F182101A8FEF7BAFCE7
:101CB00068460472012141720395017405960697E6
:101CC0000020019001A90798FFF7C8FE0090009836
:101CD000002802D101200BB0F0BD0020FBE700007E
:101CE00070B504460D46E07810210840002804D164
:101CF000A07820210840002805D029462046064A21
:101D00001268904704E029462046044A126890472A
:101D1000BFF34F8F70BD000028E0FF1F2CE0FF1FB6
:101D2000FFB587B006460C461546182101A8FEF7F8
:101D300079FC684604720021417203950121017407
:101D40000AA80590012006900020019001A93046C4
:101D5000FFF784FE0746002F02D101200BB0F0BD33
:101D60000020FBE7FEB504460D4616461F46002C34
:101D700000D004E0FF22344934A001F09DF820791E
:101D8000354908712068086008460079012804D0A8
:101D900003282CD0062853D100E000BF684600F08D
:101DA000F5FE00952C4932460868694600F03EFF72
:101DB000294A01211068002904D0C27808231A4357
:101DC000C27003E0C27808239A43C27000BF224A5F
:101DD00001211068002904D0C27804231A43C2707C
:101DE00003E0C27804239A43C27000BF29E068462A
:101DF00000F0DAF80095184932460868694600F0A4
:101E000025F9154A01211068002904D0C278082359
:101E10001A43C27003E0C27808239A43C27000BF1D
:101E20000D4A01211068002904D0C27804231A4306
:101E3000C27003E0C27804239A43C27000BF00E07E
:101E400000BF00BFFEBD0000C43B00004E554C4C1F
:101E500020213D20696F00003CE0FF1FF8B50546DA
:101E60000E461446002718480079012804D003289C
:101E700014D0062823D100E000BF002C06D0124960
:101E800032460868294600F0BDFF06E00E4932469A
:101E90000868294600F070FF074612E0002C06D0C3
:101EA000094932460868294600F0FCF906E006496F
:101EB00032460868294600F0A1F9074601E00127EB
:101EC00000BF00BF3846F8BD3CE0FF1FFEB504462A
:101ED0000D4616461F4600946846057100233A4693
:101EE0003146FFF73FFF0020FEBD70B505460C46AA
:101EF0000026002C0CD0002D0AD00126002E07D081
:101F0000012221462846FFF7A9FF002800D000241F
:101F1000204670BD70B504460D46002C00D005E08B
:101F2000FF224032044905A000F0C6FF29462046A2
:101F3000FFF7DBFF70BD0000183C000062756620F3
:101F4000213D204E554C4C0018B50246002400940B
:101F50006B461B785B1CDCB200940123DB030B4057
:101F6000002B05D0802353711C020B46A343194656
:101F700001239B030B40002B05D0402353711C020F
:101F80000B46A3431946CB06DB0E002B04D0CB0631
:101F9000DB0E137149094901002901D0014800E015
:101FA000002018BDB404000010B50446002C00D079
:101FB00005E0FF225132074907A000F07DFFE12034
:101FC00040022060002020716071A071E0712072D9
:101FD00010BD0000C03A0000636F6E6669670000C4
:101FE00070B50546002406E0A00009490858A8423B
:101FF00000D102E0641C002CF6D000BF002C00D100
:1020000004E08922034904A000F056FF204670BD79
:10201000A0390000C03A0000696E7374616E636598
:10202000203C2041525241595F53495A4528735F21
:102030006C707363694261736573290001460A79A4
:102040004B791B021A43104670470000F7B588B061
:1020500004460D46002D00D004E0D0225B495CA070
:1020600000F02AFF2868002800D004E0D122574958
:1020700059A000F021FF00200790059028680290E9
:1020800004263BE02868704301460A98FEF71AFAD6
:1020900080B206900698002801D10120069006988B
:1020A000704301460A98FEF70DFA039029680398D9
:1020B000401A04900698401C704301460A98FEF7A7
:1020C00001FA2968091A049881420DD20698401C29
:1020D000704301460A98FEF7F5F92968081A04903A
:1020E0000698401C80B2069002990498884204D851
:1020F00004980290059606980790761C202EC1D968
:1021000064212868FEF7DEF94100411802988142F7
:1021100002D237480BB0F0BD2046FFF761FF8100C7
:102120003448405801900199090C334A88180268D4
:10213000012301998B401A43026000BFE0780C2113
:102140008843E0700598032806D90598082803D22B
:10215000E07A02210843E072A07A4109490105981A
:10216000401E0143A172A07A40094001079909125B
:102170000843207007986070A078172188430746AD
:10218000A87980000421084007432879002803D05B
:102190002879102108430743A7702078202188431D
:1021A000207020786979490120221140084320706D
:1021B000E778E879002801D008200743287A00282A
:1021C00001D004200743E7700020A3E7C03A0000D5
:1021D000636F6E6669670000636F6E6669672D3EA8
:1021E00062617564526174655F4270730000000043
:1021F000B5040000A839000000700440F8B5064698
:102200000D461746002D00D005E085229200214999
:1022100021A000F051FE37E02EE03046FFF70EFF20
:10222000044608202040002806D008213046FFF749
:102230008BFE9720C000F8BD04202040002805D068
:1022400004213046FFF780FE1548F4E702202040C5
:10225000002806D002213046FFF776FE1048401CC9
:10226000E9E7E007C00F002806D001213046FFF75C
:102270006BFE0B48801CDEE73079202108400028E7
:10228000CBD0F07928706D1C38467F1E0028C3D152
:1022900000BFD0E7C03A0000646174610000000034
:1022A000B904000070B505460C461646002C00D057
:1022B00004E00A4A0A490BA000F0FEFD08E000BF56
:1022C0002879802108400028FAD02078E871641C21
:1022D0003046761E0028F2D170BD000005020000D5
:1022E000C03A0000646174610000000010B5002471
:1022F00000BF00E0641C7D20C0008442FAD3144873
:10230000006908210840002805D112480078012101
:102310004840104908700E4800690121090308402F
:1023200000280CD148040A4980314860202008491F
:102330004031486008A000F0F3F800BFFEE707480E
:10234000C0680121090608430449C86010BD0000A7
:1023500080F00F4006E0FF1F2020200000B0044066
:10236000F8B505460E461446002C00D005E0FF22C5
:102370000F32044904A000F09FFDB00047192088E7
:102380003880F8BDC8390000636F6E666967000069
:1023900030B58B00C35807242402A3431402072539
:1023A0002D022C4023438C00035130BD70B5002416
:1023B0001F4D2C6100251E4C656100241C4DAC6135
:1023C00000251B4CE5611A4A103200202DE0194D02
:1023D0002C5CE517ED0E2D196911164D2C5CE517D7
:1023E000ED0E2D196D116D01651BEBB28C001459AA
:1023F0009D00114E75592C438D005451082812DB55
:102400008C1CA40014599D0075592C438D1CAD00E3
:1024100054510446083CA40035462D5D044C20343C
:10242000044E365CA555441CE0B20C28CFDB70BDD1
:1024300000300540FC3700007C37000000B5124832
:10244000806B1249084310498863002010490861D5
:1024500048618861C86103200E49087008464078C9
:1024600040084000487000200B49086048600B4855
:102470000860FFF79BFF0848006880210843064971
:1024800008600320486000BD00800440003C080054
:1024900040B0044000400640003005404B00B28888
:1024A000F8B51B4B612804DB7A2802DC0646203E87
:1024B000F0B2302801DB5A2800DD3E200646303ECF
:1024C000F0B24400002117E0124E367876007618FC
:1024D000F2B200260096012904D10F4EB65C9E5D33
:1024E0000E40009666180D4FBD5D009E2E430A4FAC
:1024F000BF5CDE554E1CF1B2022903DA054E367878
:10250000042EE1DB034E3678761C024F3E70F8BD98
:10251000203005400CE0FF1FFC37000008380000A9
:1025200030B50446002500200C49087005E02078ED
:10253000641CFFF7B5FF681CC5B2042D02DA2078D1
:102540000028F4D1042D08DA02E03E20FFF7A8FFAE
:102550002846691CCDB20428F7DB30BD0CE0FF1F14
:10256000FFB59BB01E460020109000270E900890EB
:102570000021029103911B981A90C1E2252C05D0ED
:10258000E2B201230EA91D98B047B6E201200990DE
:10259000002500200F9026E01A98401C1A90007821
:1025A0002B280DD004DC20280DD0232814D110E0D6
:1025B0002D2802D030280FD108E00120054311E07A
:1025C000022005430EE0042005430BE008200543EC
:1025D00008E01020054305E01A98401E1A900120DB
:1025E0000F9000BF00BF0F980028D5D000200D909D
:1025F0000F901DE01A98401C1A900478302C09DBCB
:10260000392C07DC0A210D984843214630394018FF
:102610000D900DE02A2C06D11C9800680D901C9896
:10262000001D1C9004E01A98401E1A9001200F9083
:102630000F980028DED006200C90002001901A98F8
:10264000401C1A9000782E2829D100200C900F9061
:1026500021E01A98401C1A900478302C0BDB392C9E
:1026600009DC0A210C9848432146303940180C9067
:10267000012001900FE02A2C08D11C9800680C90D2
:102680001C98001D1C900120019004E01A98401E27
:102690001A9001200F900F980028DAD002E01A98C3
:1026A000401E1A901A98401C1A900078682802D090
:1026B0006C281FD10EE01A98401C1A9000786828E8
:1026C00005D0402005431A98401E1A9001E02020B2
:1026D000054313E01A98401C1A9000786C2805D026
:1026E000802005431A98401E1A9002E0FF20013016
:1026F000054303E01A98401E1A9000BF00BF1A98C5
:10270000401C1A900478642C11D0692C0FD0662CD0
:102710000DD0462C0BD0782C09D0582C07D06F2C1C
:1027200005D0622C03D0702C01D0752C7ED1642C86
:1027300001D0692C7FD1FF200130284000280DD026
:102740001C98C01DC008C00001461C9000684A6863
:102750001C99083105921C91049007E01C980068B0
:102760001C99091D1C91C1170591049009980A2311
:10277000012204A9009011A8FEF758FE074611A8EF
:10278000C0191090002305990498C01A994103DAE2
:102790002D2007907F1C11E002202840002803D044
:1027A0002B2007907F1C09E004202840002803D03C
:1027B000202007907F1C01E0002007900020069059
:1027C00008202840002812D00798002805D0079834
:1027D000C2B201230EA91D98B047012006900D98A2
:1027E000C31B30220EA91D98B0470D9F14E0E807C7
:1027F000C00F002810D10D98C31B20220EA91D98D0
:10280000B0470798002805D00798C2B201230EA947
:102810001D98B04701200690069800280BD1079814
:10282000002808D00798C2B2012301E005E102E0C8
:102830000EA91D98B047582C01D0782C7ED1782C49
:1028400001D100200990FF200130284000280CD041
:102850001C98C01DC008C0001C90016840681C9AEC
:1028600008321C920291039007E01C9800681C99A2
:10287000091D1C9100210391029009981023002248
:1028800002A9009011A8FEF7D1FD074611A8C019B2
:102890001090002006900820284000281DD010200D
:1028A0002840002811D0012330220EA91D98B047DE
:1028B0000998002801D0582000E078200246012322
:1028C0000EA91D98B047012006900D98C31B302219
:1028D0000EA91D98B0470D9F24E0E807C00F0028FF
:1028E00020D110202840002800D0BF1C0D98C31B09
:1028F00020220EA91D98B04710202840002811D092
:10290000012330220EA91D98B0470998002801D054
:10291000582000E07820024601230EA91D98B047F8
:102920000120069010202840002815D00698002885
:1029300012D1012330220EA91D9800E00CE0B0470F
:102940000998002801D0582000E078200246012391
:102950000EA91D98B047BF1C6F2C05D0622C03D068
:10296000702C01D0752C4DD1FF200130284000285B
:102970000DD01C98C01DC008C00001461C90006806
:1029800049681C9A08321C920391029007E01C9837
:1029900000681C99091D1C910021039102906F2C65
:1029A00002D1082008900BE0622C02D1022008908E
:1029B00006E0702C02D11020089001E00A20089057
:1029C00009980090002202A911A8089BFEF72EFD8D
:1029D000074611A8C019109008202840002807D0E9
:1029E0000D98C31B30220EA91D98B0470D9F09E01A
:1029F000E807C00F002805D10D98C31B20220EA99F
:102A00001D98B047109800280CD007E01098027865
:102A1000401E01230EA910901D98B0471098007811
:102A20000028F3D1E807C00F002865D00D98C31B1C
:102A300020220EA91D98B0475EE0632C0BD11C9894
:102A40000178001D1C90C8B20A9001230EA90A9AB1
:102A50001D98B04750E0732C49D11C9800680B902A
:102A60001C98001D1C900B98002845D00198002848
:102A700001D00C9F03E00B98FDF7DFFD0746E80748
:102A8000C00F002805D10D98C31B20220EA91D9848
:102A9000B0470198002812D008E00B980278401C3B
:102AA00001230EA90B901D98B0477F1E0B9800784C
:102AB000002801D0002FF0DC0C98C71B0CE007E0C9
:102AC0000B980278401C01230EA90B901D98B0476B
:102AD0000B9800780028F3D1E807C00F00280BD02E
:102AE0000D98C31B20220EA91D98B04704E0E2B246
:102AF00001230EA91D98B04700BF1A98401C1A90D8
:102B00001A980078041E00D038E50E981FB0F0BD6A
:102B100002480068401C01490860704708E0FF1F38
:102B200010B500200249086000F004F810BD000054
:102B3000008104407047000010B503480168034855
:102B4000034A1268904710BD30E0FF1F00A0064006
:102B500034E0FF1F10B5034841680348034A126878
:102B6000904710BD4CE0FF1F00B0064038E0FF1F4B
:102B700010B5034881680348034A1268904710BDA6
:102B80004CE0FF1F00C0064038E0FF1F10B50446B0
:102B9000002C00D005E0FF226C32074907A000F0AE
:102BA0008BF9E12040022060002020716071A0714B
:102BB000E071207210BD0000143B0000636F6E6670
:102BC0006967000070B505460326002406E0A000F2
:102BD00009490858A84200D102E0641CB442F6D367
:102BE00000BFB44200D204E0A122044904A000F0D6
:102BF00063F9204670BD0000AC390000143B0000B2
:102C0000696E7374616E6365203C207561727441F6
:102C100072726179436F756E7400000001460A7923
:102C20004B791B021A43104670470000F7B582B07B
:102C300005460C46002C00D004E0CC22424943A0BB
:102C400000F03AF92068002800D004E0CD223E4987
:102C500040A000F031F900260027002001902068F4
:102C600001010498FDF72EFC86B2002E00D101264A
:102C700031010498FDF726FC2168401A0190701C70
:102C800001010498FDF71EFC2168091A0198814290
:102C900009D2701C01010498FDF714FC2168081A80
:102CA0000190701C86B264212068FDF70BFC410086
:102CB00041180198814202D22C4805B0F0BD284647
:102CC000FFF780FF81002A48405800900099090CC6
:102CD000284A88180268012300998B401A43026031
:102CE00000BFE8780C218843E8702878400940014B
:102CF0003112084328706E70A87817218843074660
:102D0000A07980000421084007432079002803D0DF
:102D10002079102108430743AF7028782021884389
:102D2000617949012022114008432870EF78E07949
:102D3000002801D008200743207A002801D0042071
:102D40000743EF700020B8E7143B0000636F6E6626
:102D500069670000636F6E6669672D3E6261756426
:102D6000526174655F42707300000000F50300005B
:102D7000BC39000000700440F8B506460D46174601
:102D8000002D00D004E01A4A1A491BA000F094F864
:102D900027E01EE03046FFF741FF044608202040B0
:102DA000002801D01648F8BD04202040002802D099
:102DB0001348401CF7E702202040002802D01048AA
:102DC000801CF0E7E007C00F002802D0FD20800043
:102DD000E9E73079202108400028DBD0F07928701D
:102DE0006D1C38467F1E0028D3D100BFDBE70000F2
:102DF0004F020000143B0000646174610000000099
:102E0000F103000010B508E000BF037980242340DF
:102E1000002BFAD00B78C371491C1346521E002BAD
:102E2000F2D110BD0FB410B504A9074B02AA039844
:102E300000F084F8044602A9002000F027F920469B
:102E400010BC08BC04B018478D3000002021020CD3
:102E500001D010211046020A01D01046083902099B
:102E600001D01046091F820801D01046891E420871
:102E700001D0881E7047081A704730B47446641E2B
:102E80002578641CAB4204D3635D5B00E31830BC5F
:102E900018471D46F8E74100080200D004200A0E3A
:102EA00001D001221043090EFF2901D1022108435C
:102EB000012800D10520704704460D4616463346CA
:102EC0002A46214602A0FEF78BFB00BF00BEFDE7AD
:102ED000415353455254204552524F5220222025EF
:102EE0007320223A2066696C652022257322204CCB
:102EF000696E652022256422200A000010B5FDF7C6
:102F0000A5FD10BD5E2110B5C9430807FDF768FE99
:102F100010BD02E008C8121F08C1002AFAD170478C
:102F20007047002001E001C1121F002AFBD1704749
:102F3000014908607047000048E0FF1FFFB58DB0F1
:102F40000446002506E025280AD0109A0F999047DC
:102F5000641C6D1C20780028F5D1284611B0F0BD06
:102F600000270121484A009700E00743641C2378AA
:102F70000846203B98401042F7D120782E2817D1E0
:102F8000042007436078641C2A280CD10E98641C26
:102F900002C800910E900BE000990A22514330398B
:102FA0004018641C00902078014630390929F3D973
:102FB00020780028D1D0642808D0692806D0752848
:102FC0001ED0109A0F9990476D1C5BE00A200E9955
:102FD000019001C90E91002802DA40422D2102E041
:102FE000390504D52B216A461172012103E0F90746
:102FF00004D02021F7E70BAE0B910DE00021FAE79A
:103000000A200E99019001C90E91F7E70199FDF789
:1030100059FA3031761E31700028F7D103A8801B91
:1030200020300190780701D5009801E00120009040
:103030000199884201DD401A00E00020002700903D
:1030400006E002A8109AC05D0F9990476D1C7F1C86
:103050000B988742F5DB04E0109A30200F999047D7
:103060006D1C0099481E00900029F5DC05E03078C1
:10307000109A761C0F9990476D1C0199481E01907B
:103080000029F4DC641C65E7092801000A68531C68
:103090000B60107070470000F0B50C4601461D2211
:1030A0004B00D2069F18E52605463606620087B01B
:1030B0002046B7427BD21D27FF06D719B74276D2EA
:1030C0004F0043003E0E1A0EB21A1B2A07DD0029DC
:1030D00002DA854807B0F0BD844807B0F0BD1A2673
:1030E000F2422FDA002807DA002902DA804807B016
:1030F000F0BD804807B0F0BD21462846FDF7E1FA53
:103100000646FFF7C8FE042801D1FFF7FBFE28465C
:10311000FFF7C1FE05462046FFF7BDFE04463046D8
:10312000FFF7B9FE042D01D0052D08D1042C01D0E4
:10313000052C04D1002802D10220FFF7F9FE304609
:1031400007B0F0BD9F4211D9002902DA6A4F6B4ED9
:1031500001E06B4F6B4E23462C461D460122034671
:10316000D20708465440504019460BE0002807DAC1
:10317000002902DA644F654E04E0654F654E01E0B8
:1031800000263746421A012352001B069A422FD2CC
:10319000484061490CD5BF20000602903846FDF733
:1031A000A6FC07465D493046FDF7A1FC0BE053E065
:1031B0003F20000602903846FDF748FC0746574975
:1031C0003046FDF743FC064628460299FDF73CFAD7
:1031D0002146FDF73BFC009021460298FDF734FAAA
:1031E0002946FDF788FC0099FDF76BFA044604E0D8
:1031F00021462846FDF765FA04460146FDF724FA04
:1032000047490090FDF720FA4649FDF71FFC009959
:10321000FDF71AFA4449FDF719FC0099FDF714FA75
:103220004249FDF713FC0099FDF70EFA4049FDF7FE
:103230000DFC054620460099FDF706FA2946FDF7E4
:1032400003FA3146FDF702FC2146FDF7FFFB394644
:10325000FDF7FCFB07B0F0BDFF263606B34201D8F0
:10326000B24205D901462846FFF748FE07B0F0BD37
:103270002F4607437F000AD0B3420CD1B2420AD195
:1032800001229207904391430D46044618E7FF221E
:10329000D2051043F9E7B3420CD047000AD0B2423E
:1032A0000ED04E000CD05340F0D4002A0EDB9F26E7
:1032B000F6050DE0FF22D2051143E00FC007FFE63F
:1032C000C90FC907FF22D2051043F9E65F26F605AC
:1032D00031462846FDF7B8F9054631462046FDF748
:1032E000B3F904462946EBE6DB0FC9BFDB0FC93F44
:1032F000DB0F49C0DB0F49400000C9BF22AAFDB95E
:103300000000C93F22AAFD39000049C022AA7DBAA7
:103310000000494022AA7D3A0060ED3EC30ACE3744
:103320002DAD65BD8FB8D53D0FB511BE61C84C3E02
:10333000A8AAAABE00B50023202007498860FF2064
:10334000F430FEF78DF9202003494860FF20F43067
:10335000FEF786F900BD0000C0F00F4000B5002365
:103360000120400706498860F920FEF779F901201D
:10337000400703494860F920FEF772F900BD0000DC
:1033800000F10F40FFB58DB015461E46169FE81997
:10339000C10F0918491009B20C9117997018C10F83
:1033A0000918491009B20B91E81BFDF7A9FA01466B
:1033B000059001208007FDF784F90A901799701A8B
:1033C000FDF79EFA0146059001208007FDF779F987
:1033D00009900C9A0D99881AFDF792FA05900A99AE
:1033E000FDF732F908900B9A0E99881AFDF788FAC2
:1033F00005900999FDF728F9079008990798FFF7B4
:103400004BFE06900698FDF7ABFA00220F4B019198
:103410000090FDF795F90E4A0E4B03910290FDF7CF
:10342000F7F905910490FDF777FA04B2002C03DA5E
:103430002046FF30693004B2FF206930844201DD4C
:10344000201A04B2204611B0F0BD00000080664092
:103450006F1283C0CA210940FFB589B006460F46E6
:103460002CA0FFF75DF80020089007900390102033
:103470000790012008900E212848089B079AFEF724
:103480004FFC002002903BE0062005AB01220E21FC
:1034900000902248FEF702FC6846007D0102684663
:1034A000407D01430CB26846807D01026846C07DC4
:1034B00001430DB26846007E00026946497E08431A
:1034C00000B204900020305EA04200DA3480002177
:1034D0000B98415EA14201DD0B9804800020385E0C
:1034E000A84200DA3D8000210C98415EA94201DD2E
:1034F0000C9805803220FEF7B3F80298401C029029
:10350000FF212D3102988842BEDB05A0FFF708F8A5
:103510000DB0F0BD7475726E0000000000600640D2
:10352000646F6E650000000010B586B00446224648
:1035300004A101A8FFF776FC01A8FEF7F1FF06B091
:1035400010BD0000256400000D48806B0121490377
:1035500008430B49886388150A4948630A4948614A
:103560000A4840690121490708430849486107485A
:103570004038406920210843044940394861704778
:103580000080044040D0044000C0044000F10F40DF
:103590002048806B0121C90208431E498863FF202F
:1035A00004301D49C8601D484069082188431B49F3
:1035B00048611948C0680521490408431649C86094
:1035C000FF2004300863154840690121090388433E
:1035D000124948611048006B0521490408430E490F
:1035E00008631F20002805DBC206D20E012191408E
:1035F0000B4A116000BF1F20002809DB00BF00BF7D
:10360000C206D20E01219140064A116000BF00BFE0
:1036100000BF70470080044000B0044080F00F40BD
:1036200080E200E000E100E010B57D21C90006481D
:103630000068FCF747FF401E04494861002088618C
:103640000720086110BD000044E0FF1F00E000E01B
:103650003EB50220FDF7A8FC04466846FEF77CF85C
:1036600003480190224669460248FEF7A7F83EBD8E
:10367000A0860100006006408AB000BFFDF72CFB69
:10368000FDF7BAFAFDF7EEFAFDF708FBFEF7D6FEF6
:10369000FFF75AFFFFF77CFFFFF7C6FFFFF7D8FFE2
:1036A000FFF75CFE30490991494208914942079170
:1036B0004942069106AB08AA07A909A8FFF7CCFE64
:1036C00050E000240025002002901025012423460C
:1036D0002A460E212548FEF723FB062004AB0122D3
:1036E0000E2100902148FEF7D9FA6846007C0102BD
:1036F0006846407C01430EB26846807C0102684601
:10370000C07C01430FB26846007D01026846407DDF
:10371000014308B2039068461821415E2022825E70
:103720001C2300920191C35E2422825E39463046FA
:10373000FFF728FE0E4908800E48007801280AD1BC
:1037400040070D494860FFF7F5FD09490020085E74
:10375000FFF7EAFE05E02020074940394860FFF7FF
:10376000FDFD00BFADE70000F0D8FFFF00600640A0
:1037700004E0FF1F06E0FF1F00F10F400100000002
:10378000020000000400000008000000100000001B
:103790002000000040000000800000000001000048
:1037A00000020000000400000008000000100000FB
:1037B0000020000000400000008000000000010028
:1037C00000000200000004000000080000001000DB
:1037D0000000200000004000000080000000000108
:1037E00000000002000000040000000800000010BB
:1037F00000000020000000400000008025110708A4
:1038000035260A0B283413120B0E0006070C050E82
:103810000C060D0A0F0A000E0F0E0D0E0000000020
:1038200000000500000000080F0E0E0E0F020B082E
:10383000070E0F080E080F0A0E060002030600000E
:103840000B000A06060207020E0C0D0E0E0E0D0AE4
:103850000F000B0600000A06000000000108010826
:103860000108010801080108010800000702000022
:103870000000000001000000010300000000011032
:1038800000127A0000048000020201000000000023
:103890000000000000030000000004000000000021
:1038A000000C0000070500000705000000010103EF
:1038B00004040404000102030404040401010201DD
:1038C00001010101000101030404040400010103DA
:1038D000040506060404040404050606040404049E
:1038E0000405060706060606060606068002DC0232
:1038F0000005B80580079508000A710B127A0000D0
:1039000097980000C0C62D00404B4C000060064058
:10391000007006401400160018001A001C001E005B
:10392000220028001C002000240028002C00300069
:103930003800440030003800400048005000580073
:103940006800800050006000700080009000A000BF
:10395000C000F000A000C000E00000012001400114
:103960008001E00140018001C001000240028002AC
:103970000003C003800200038003000480040005EC
:103980000006800700050006000700080009000A7D
:10399000000C000F08090000060034100700341066
:1039A00000A006400C0000000A00341000000000D7
:1039B00000B0064000C00640800D0E000000000070
:1039C0000B0034100C003410433A5C55736572736D
:1039D0005C41444D494E5C417070446174615C4C83
:1039E0006F63616C5C41726D5C5061636B735C4EC4
:1039F00058505C4D4B4C34365A345F4446505C3121
:103A0000302E302E335C647269766572735C667337
:103A10006C5F706F72742E6800000000433A2F557F
:103A2000736572732F41444D494E2F41707044614C
:103A300074612F4C6F63616C2F41726D2F50616305
:103A40006B732F4E58502F4D4B4C34365A345F44C5
:103A500046502F31302E302E332F647269766572C6
:103A6000732F66736C5F636C6F636B2E6300000073
:103A7000433A2F55736572732F41444D494E2F4180
:103A80007070446174612F4C6F63616C2F41726D73
:103A90002F5061636B732F4E58502F4D4B4C343663
:103AA0005A345F4446502F31302E302E332F6472FB
:103AB00069766572732F66736C5F6932632E63007B
:103AC000433A2F55736572732F41444D494E2F4130
:103AD0007070446174612F4C6F63616C2F41726D23
:103AE0002F5061636B732F4E58502F4D4B4C343613
:103AF0005A345F4446502F31302E302E332F6472AB
:103B000069766572732F66736C5F6C707363692E70
:103B100063000000433A2F55736572732F41444D83
:103B2000494E2F417070446174612F4C6F63616C1A
:103B30002F41726D2F5061636B732F4E58502F4D74
:103B40004B4C34365A345F4446502F31302E302E91
:103B5000332F647269766572732F66736C5F75615B
:103B600072742E6300000000433A2F557365727320
:103B70002F41444D494E2F417070446174612F4C68
:103B80006F63616C2F41726D2F5061636B732F4EA9
:103B900058502F4D4B4C34365A345F4446502F31D9
:103BA000302E302E332F7574696C69746965732FEC
:103BB00066736C5F64656275675F636F6E736F6C6D
:103BC000652E6300433A2F55736572732F41444D40
:103BD000494E2F417070446174612F4C6F63616C6A
:103BE0002F41726D2F5061636B732F4E58502F4DC4
:103BF0004B4C34365A345F4446502F31302E302EE1
:103C0000332F7574696C69746965732F696F2F66DA
:103C1000736C5F696F2E6300433A2F55736572733F
:103C20002F41444D494E2F417070446174612F4CB7
:103C30006F63616C2F41726D2F5061636B732F4EF8
:103C400058502F4D4B4C34365A345F4446502F3128
:103C5000302E302E332F7574696C69746965732F3B
:103C60006C6F672F66736C5F6C6F672E630000006C
:103C7000903C000000E0FF1F4C000000122F0000ED
:103C8000DC3C00004CE0FF1F0C000000222F000075
:103C90000000000000000000000000000000000024
:103CA0000080000000093D0000000000000000004E
:103CB0000000000000000000000000000000000004
:103CC00000000000000000000000000000000000F4
:0C3CD000000000000000400100000000A7
:0400000500000411E2
:00000001FF
